:020000040800F2
:1000000000800020D1020008000000000000000075
:1000100000000000000000000000000000000000E0
:1000200000000000000000000000000000000000D0
:1000300000000000000000000000000000000000C0
:1000400000000000000000000000000000000000B0
:1000500000000000000000000000000000000000A0
:100060000000000000000000000000000000000090
:100070000000000000000000000000000000000080
:100080000000000000000000B502000800000000B1
:100090000000000000000000000000000000000060
:1000A0000000000000000000000000000000000050
:1000B0000000000000000000000000000000000040
:1000C0000000000000000000000000000000000030
:1000D0000000000000000000000000000000000020
:1000E0000000000000000000000000000000000010
:1000F0000000000000000000000000000000000000
:1001000000000000000000000000000000000000EF
:1001100000000000000000000000000000000000DF
:1001200000000000000000000000000000000000CF
:1001300000000000000000000000000000000000BF
:1001400000000000000000000000000000000000AF
:1001500080B483B000AF0346FB71FB7903F01F034B
:10016000012202FA03F1054A97F907305B0942F8C8
:10017000231000BF0C37BD4680BC704700E100E093
:1001800080B483B000AF0346FB71FB7903F01F031B
:10019000012202FA03F1064A97F907305B0920337E
:1001A00042F8231000BF0C37BD4680BC704700BF2B
:1001B00000E100E080B400AF0B4B1B680A4A43F437
:1001C0008033136000BF084B1B6803F40033002B1F
:1001D000F9D0054B5B68044A43F00103536000BF4C
:1001E000BD4680BC704700BF0010024080B400AF25
:1001F0002E4B12221A602E4B1B682D4A43F480337B
:10020000136000BF2A4B1B6803F40033002BF9D0A6
:10021000274BDB6A264A43F04003D362244BDB6A58
:10022000234A43F4C063D362214B1B68204A43F046
:100230008063136000BF1E4B1B6803F00063002B3C
:10024000F9D01B4BDB6A1A4A43F48033D362184B54
:10025000DB6A174A43F00403D362154B5B68144A08
:1002600043F480335360124B5B68114A43F4E0134C
:1002700053600F4B5B680E4A43F4806353600C4B32
:100280001B680B4A43F08073136000BF084B1B6868
:1002900003F00073002BF9D0054B5B68044A43F070
:1002A0000203536000BFBD4680BC7047002002407F
:1002B0000010024080B400AF034B044ADB6CD360F3
:1002C00000BFBD4680BC70470024014000140140BF
:1002D00080B500AFFFF78AFF404B5B683F4A23F4CD
:1002E000404353603D4B5B683C4A43F400435360DA
:1002F0003A4B9B69394A43F001039361374B9B6941
:10030000364A43F020039361344B9B69334A43F0F0
:1003100010039361314B9B69304A43F4007393613E
:100320002F4B1B682E4A23F00F0313602C4B2C4AD3
:100330001B6813602B4B4FF022321A60294B4FF091
:1003400022325A60274B0022DA60274B5B68264A2C
:1003500043F020035360244B0022DA62224B0A222E
:100360005A63214B9B68204A43F4602393601E4BE1
:100370009B681D4A43F4801393601B4B9B681A4A89
:1003800043F0020393601220FFF7E2FE164B9B68D6
:10039000154A43F001039360134B9B68124A43F0E4
:1003A0000803936000BF104B9B6803F00803002B09
:1003B000F9D10D4B9B680C4A43F00403936000BFD6
:1003C000094B9B6803F00403002BF9D1064B9B6893
:1003D000054A43F48003936000BFFDE7001002402C
:0C03E00000100140001401400024014006
:04000005080002D11C
:00000001FF
